{
  "contractName": "Token",
  "abi": [
    {
      "constant": true,
      "inputs": [
        {
          "name": "",
          "type": "address"
        }
      ],
      "name": "balances",
      "outputs": [
        {
          "name": "",
          "type": "uint256"
        }
      ],
      "payable": false,
      "stateMutability": "view",
      "type": "function"
    },
    {
      "constant": true,
      "inputs": [],
      "name": "tokenLimit",
      "outputs": [
        {
          "name": "",
          "type": "int256"
        }
      ],
      "payable": false,
      "stateMutability": "view",
      "type": "function"
    },
    {
      "inputs": [],
      "payable": false,
      "stateMutability": "nonpayable",
      "type": "constructor"
    },
    {
      "constant": false,
      "inputs": [
        {
          "name": "ammount",
          "type": "uint256"
        },
        {
          "name": "_address",
          "type": "address"
        }
      ],
      "name": "sendTokens",
      "outputs": [],
      "payable": false,
      "stateMutability": "nonpayable",
      "type": "function"
    },
    {
      "constant": false,
      "inputs": [],
      "name": "buyTokens",
      "outputs": [],
      "payable": true,
      "stateMutability": "payable",
      "type": "function"
    }
  ],
  "bytecode": "0x608060405268056bc75e2d6310000060005534801561001d57600080fd5b50678ac7230489e800006000808282540392505081905550678ac7230489e80000600160003373ffffffffffffffffffffffffffffffffffffffff1673ffffffffffffffffffffffffffffffffffffffff168152602001908152602001600020819055506102e7806100906000396000f3fe60806040526004361061003f5760003560e01c806327e235e31461004457806329322e05146100a957806356c7627e14610104578063d0febe4c1461012f575b600080fd5b34801561005057600080fd5b506100936004803603602081101561006757600080fd5b81019080803573ffffffffffffffffffffffffffffffffffffffff169060200190929190505050610139565b6040518082815260200191505060405180910390f35b3480156100b557600080fd5b50610102600480360360408110156100cc57600080fd5b8101908080359060200190929190803573ffffffffffffffffffffffffffffffffffffffff169060200190929190505050610151565b005b34801561011057600080fd5b5061011961023b565b6040518082815260200191505060405180910390f35b610137610241565b005b60016020528060005260406000206000915090505481565b81600160003373ffffffffffffffffffffffffffffffffffffffff1673ffffffffffffffffffffffffffffffffffffffff16815260200190815260200160002054101561019d57600080fd5b81600160003373ffffffffffffffffffffffffffffffffffffffff1673ffffffffffffffffffffffffffffffffffffffff1681526020019081526020016000206000828254039250508190555081600160008373ffffffffffffffffffffffffffffffffffffffff1673ffffffffffffffffffffffffffffffffffffffff168152602001908152602001600020600082825401925050819055505050565b60005481565b34600080828254039250508190555060008054121561025f57600080fd5b6000341161026c57600080fd5b34600160003373ffffffffffffffffffffffffffffffffffffffff1673ffffffffffffffffffffffffffffffffffffffff1681526020019081526020016000206000828254019250508190555056fea165627a7a723058206253217ee3b161abd754e3b1121c6374e8efadb34a7f91265881272052f7c0350029",
  "source": "pragma solidity ^0.5.8;\r\n\r\ncontract Token {\r\n\r\n    int public tokenLimit = 100*1000000000000000000;\r\n\r\n    mapping(address => uint) public balances;\r\n\r\n    constructor() public {\r\n        tokenLimit-= 10*1000000000000000000;\r\n        balances[msg.sender] = 10*1000000000000000000;\r\n    }\r\n    \r\n    function sendTokens(uint ammount, address _address) public {\r\n        require(balances[msg.sender]>=ammount);\r\n        balances[msg.sender]-=ammount;\r\n        balances[_address]+=ammount;\r\n    }\r\n    function buyTokens() public payable {\r\n        tokenLimit-=int(msg.value);\r\n        require(tokenLimit>=0);\r\n        require(msg.value>0);\r\n        balances[msg.sender]+=msg.value;\r\n    }\r\n\r\n}\r\n",
  "sourcePath": "E:/Basic-token/src/contracts/Token.sol",
  "compiler": {
    "name": "solc",
    "version": "0.5.8+commit.23d335f2.Emscripten.clang"
  },
  "schemaVersion": "3.0.13",
  "updatedAt": "2019-10-04T08:00:49.676Z",
  "devdoc": {
    "methods": {}
  },
  "userdoc": {
    "methods": {}
  }
}